:03000000020A23CE
:0C0A2300787FE4F6D8FD7581290208F602
:100A0300414C434F484F4C2044455445435445447F
:100A13004E4F20414C434F484F4C20464F554E4478
:0809DB00C2A6D2A77F057E0031
:1009E300E4FDFCC3ED9FEC9E5015E4FBFA0BBB004A
:0F09F300010ABA01F8BBF4F50DBD00010C80E458
:010A020022D1
:0A0A2F008F90C2A51209DBC2A722B6
:0A0A39008F90D2A51209DBC2A7229C
:1008F600780A7C007D007BFF7A0A79037E007F10F0
:100906001208D0781A7C007D007BFF7A0A79137E64
:10091600007F101208D07F38120A2F7F0C120A2F80
:100926007F01120A2F7F80120A2F7F0A7E0012098A
:10093600E37F80120A2F308750E4F508F509C28557
:10094600D280C2B01209DFD285D280C2B00509E5D5
:100956000970020508C39405E5086480948040DEAA
:100966007F0A7E001209E3E4F508F509740A2509F1
:10097600F8E6FF120A390509E50970020508C3946D
:1009860010E5086480948040E320879EE4F508F52E
:1009960009D285C280D2B00509E50970020508644E
:1009A60005450870EC7F0A7E001209E3E4F508F5B8
:1009B60009C3E5099410E5086480948040030209A0
:1009C60030741A2509F8E6FF120A390509E5097097
:0509D600E0050880DCD3
:10080000E709F608DFFA8046E709F208DFFA803EDA
:1008100088828C83E709F0A3DFFA8032E309F608C7
:10082000DFFA8078E309F208DFFA807088828C832F
:10083000E309F0A3DFFA806489828A83E0A3F608E3
:10084000DFFA805889828A83E0A3F208DFFA804CBD
:1008500080D280FA80C680D4806980F28033801094
:1008600080A680EA809A80A880DA80E280CA8033FD
:1008700089828A83ECFAE493A3C8C582C8CCC58375
:10088000CCF0A3C8C582C8CCC583CCDFE9DEE78045
:100890000D89828A83E493A3F608DFF9ECFAA9F0C4
:1008A000EDFB2289828A83ECFAE0A3C8C582C8CC1A
:1008B000C583CCF0A3C8C582C8CCC583CCDFEADE33
:1008C000E880DB89828A83E493A3F208DFF980CC95
:1008D00088F0EF60010E4E60C388F0ED2402B4048E
:1008E0000050B9F582EB2402B4040050AF23234535
:0608F00082239008507302
:00000001FF
